{
  "contractName": "ReviseWeMeta",
  "abi": [
    {
      "inputs": [
        {
          "internalType": "string",
          "name": "_initBaseURI",
          "type": "string"
        }
      ],
      "stateMutability": "nonpayable",
      "type": "constructor"
    },
    {
      "anonymous": false,
      "inputs": [
        {
          "indexed": true,
          "internalType": "address",
          "name": "owner",
          "type": "address"
        },
        {
          "indexed": true,
          "internalType": "address",
          "name": "approved",
          "type": "address"
        },
        {
          "indexed": true,
          "internalType": "uint256",
          "name": "tokenId",
          "type": "uint256"
        }
      ],
      "name": "Approval",
      "type": "event"
    },
    {
      "anonymous": false,
      "inputs": [
        {
          "indexed": true,
          "internalType": "address",
          "name": "owner",
          "type": "address"
        },
        {
          "indexed": true,
          "internalType": "address",
          "name": "operator",
          "type": "address"
        },
        {
          "indexed": false,
          "internalType": "bool",
          "name": "approved",
          "type": "bool"
        }
      ],
      "name": "ApprovalForAll",
      "type": "event"
    },
    {
      "anonymous": false,
      "inputs": [
        {
          "indexed": true,
          "internalType": "address",
          "name": "previousOwner",
          "type": "address"
        },
        {
          "indexed": true,
          "internalType": "address",
          "name": "newOwner",
          "type": "address"
        }
      ],
      "name": "OwnershipTransferred",
      "type": "event"
    },
    {
      "anonymous": false,
      "inputs": [
        {
          "indexed": true,
          "internalType": "address",
          "name": "from",
          "type": "address"
        },
        {
          "indexed": true,
          "internalType": "address",
          "name": "to",
          "type": "address"
        },
        {
          "indexed": true,
          "internalType": "uint256",
          "name": "tokenId",
          "type": "uint256"
        }
      ],
      "name": "Transfer",
      "type": "event"
    },
    {
      "inputs": [],
      "name": "MAX_SUPPLY",
      "outputs": [
        {
          "internalType": "uint256",
          "name": "",
          "type": "uint256"
        }
      ],
      "stateMutability": "view",
      "type": "function"
    },
    {
      "inputs": [
        {
          "internalType": "address",
          "name": "to",
          "type": "address"
        },
        {
          "internalType": "uint256",
          "name": "tokenId",
          "type": "uint256"
        }
      ],
      "name": "approve",
      "outputs": [],
      "stateMutability": "nonpayable",
      "type": "function"
    },
    {
      "inputs": [
        {
          "internalType": "address",
          "name": "owner",
          "type": "address"
        }
      ],
      "name": "balanceOf",
      "outputs": [
        {
          "internalType": "uint256",
          "name": "",
          "type": "uint256"
        }
      ],
      "stateMutability": "view",
      "type": "function"
    },
    {
      "inputs": [
        {
          "internalType": "uint256",
          "name": "tokenId",
          "type": "uint256"
        }
      ],
      "name": "getApproved",
      "outputs": [
        {
          "internalType": "address",
          "name": "",
          "type": "address"
        }
      ],
      "stateMutability": "view",
      "type": "function"
    },
    {
      "inputs": [
        {
          "internalType": "address",
          "name": "owner",
          "type": "address"
        },
        {
          "internalType": "address",
          "name": "operator",
          "type": "address"
        }
      ],
      "name": "isApprovedForAll",
      "outputs": [
        {
          "internalType": "bool",
          "name": "",
          "type": "bool"
        }
      ],
      "stateMutability": "view",
      "type": "function"
    },
    {
      "inputs": [],
      "name": "name",
      "outputs": [
        {
          "internalType": "string",
          "name": "",
          "type": "string"
        }
      ],
      "stateMutability": "view",
      "type": "function"
    },
    {
      "inputs": [],
      "name": "owner",
      "outputs": [
        {
          "internalType": "address",
          "name": "",
          "type": "address"
        }
      ],
      "stateMutability": "view",
      "type": "function"
    },
    {
      "inputs": [
        {
          "internalType": "uint256",
          "name": "tokenId",
          "type": "uint256"
        }
      ],
      "name": "ownerOf",
      "outputs": [
        {
          "internalType": "address",
          "name": "",
          "type": "address"
        }
      ],
      "stateMutability": "view",
      "type": "function"
    },
    {
      "inputs": [],
      "name": "renounceOwnership",
      "outputs": [],
      "stateMutability": "nonpayable",
      "type": "function"
    },
    {
      "inputs": [
        {
          "internalType": "address",
          "name": "from",
          "type": "address"
        },
        {
          "internalType": "address",
          "name": "to",
          "type": "address"
        },
        {
          "internalType": "uint256",
          "name": "tokenId",
          "type": "uint256"
        }
      ],
      "name": "safeTransferFrom",
      "outputs": [],
      "stateMutability": "nonpayable",
      "type": "function"
    },
    {
      "inputs": [
        {
          "internalType": "address",
          "name": "from",
          "type": "address"
        },
        {
          "internalType": "address",
          "name": "to",
          "type": "address"
        },
        {
          "internalType": "uint256",
          "name": "tokenId",
          "type": "uint256"
        },
        {
          "internalType": "bytes",
          "name": "data",
          "type": "bytes"
        }
      ],
      "name": "safeTransferFrom",
      "outputs": [],
      "stateMutability": "nonpayable",
      "type": "function"
    },
    {
      "inputs": [],
      "name": "saleActive",
      "outputs": [
        {
          "internalType": "bool",
          "name": "",
          "type": "bool"
        }
      ],
      "stateMutability": "view",
      "type": "function"
    },
    {
      "inputs": [
        {
          "internalType": "address",
          "name": "operator",
          "type": "address"
        },
        {
          "internalType": "bool",
          "name": "approved",
          "type": "bool"
        }
      ],
      "name": "setApprovalForAll",
      "outputs": [],
      "stateMutability": "nonpayable",
      "type": "function"
    },
    {
      "inputs": [
        {
          "internalType": "bytes4",
          "name": "interfaceId",
          "type": "bytes4"
        }
      ],
      "name": "supportsInterface",
      "outputs": [
        {
          "internalType": "bool",
          "name": "",
          "type": "bool"
        }
      ],
      "stateMutability": "view",
      "type": "function"
    },
    {
      "inputs": [],
      "name": "symbol",
      "outputs": [
        {
          "internalType": "string",
          "name": "",
          "type": "string"
        }
      ],
      "stateMutability": "view",
      "type": "function"
    },
    {
      "inputs": [
        {
          "internalType": "address",
          "name": "from",
          "type": "address"
        },
        {
          "internalType": "address",
          "name": "to",
          "type": "address"
        },
        {
          "internalType": "uint256",
          "name": "tokenId",
          "type": "uint256"
        }
      ],
      "name": "transferFrom",
      "outputs": [],
      "stateMutability": "nonpayable",
      "type": "function"
    },
    {
      "inputs": [
        {
          "internalType": "address",
          "name": "newOwner",
          "type": "address"
        }
      ],
      "name": "transferOwnership",
      "outputs": [],
      "stateMutability": "nonpayable",
      "type": "function"
    },
    {
      "stateMutability": "payable",
      "type": "receive"
    },
    {
      "inputs": [
        {
          "internalType": "uint256",
          "name": "_quantity",
          "type": "uint256"
        }
      ],
      "name": "mint",
      "outputs": [],
      "stateMutability": "payable",
      "type": "function"
    },
    {
      "inputs": [],
      "name": "toggleSaleState",
      "outputs": [],
      "stateMutability": "nonpayable",
      "type": "function"
    },
    {
      "inputs": [],
      "name": "totalSupply",
      "outputs": [
        {
          "internalType": "uint256",
          "name": "",
          "type": "uint256"
        }
      ],
      "stateMutability": "view",
      "type": "function"
    },
    {
      "inputs": [
        {
          "internalType": "string",
          "name": "_newBaseURI",
          "type": "string"
        }
      ],
      "name": "setBaseURI",
      "outputs": [],
      "stateMutability": "nonpayable",
      "type": "function"
    },
    {
      "inputs": [
        {
          "internalType": "uint256",
          "name": "tokenId",
          "type": "uint256"
        }
      ],
      "name": "tokenURI",
      "outputs": [
        {
          "internalType": "string",
          "name": "",
          "type": "string"
        }
      ],
      "stateMutability": "view",
      "type": "function"
    },
    {
      "inputs": [],
      "name": "withdraw",
      "outputs": [],
      "stateMutability": "nonpayable",
      "type": "function"
    }
  ],
  "bytecode": "0x60806040526040518060400160405280600581526020017f2e6a736f6e000000000000000000000000000000000000000000000000000000815250600990816200004a919062000508565b506000600a60006101000a81548160ff0219169083151502179055506000600a60016101000a81548160ff0219169083151502179055503480156200008e57600080fd5b5060405162003dae38038062003dae8339818101604052810190620000b4919062000753565b6040518060400160405280600c81526020017f52657669736557654d65746100000000000000000000000000000000000000008152506040518060400160405280600481526020017f5256574d00000000000000000000000000000000000000000000000000000000815250816000908162000131919062000508565b50806001908162000143919062000508565b505050620001666200015a6200019560201b60201c565b6200019d60201b60201c565b6200017d60076200026360201b62000fdc1760201c565b6200018e816200027960201b60201c565b50620007a4565b600033905090565b6000600660009054906101000a900473ffffffffffffffffffffffffffffffffffffffff16905081600660006101000a81548173ffffffffffffffffffffffffffffffffffffffff021916908373ffffffffffffffffffffffffffffffffffffffff1602179055508173ffffffffffffffffffffffffffffffffffffffff168173ffffffffffffffffffffffffffffffffffffffff167f8be0079c531659141344cd1fd0a4f28419497f9722a3daafe3b4186f6b6457e060405160405180910390a35050565b6001816000016000828254019250508190555050565b80600890816200028a919062000508565b5050565b600081519050919050565b7f4e487b7100000000000000000000000000000000000000000000000000000000600052604160045260246000fd5b7f4e487b7100000000000000000000000000000000000000000000000000000000600052602260045260246000fd5b600060028204905060018216806200031057607f821691505b602082108103620003265762000325620002c8565b5b50919050565b60008190508160005260206000209050919050565b60006020601f8301049050919050565b600082821b905092915050565b600060088302620003907fffffffffffffffffffffffffffffffffffffffffffffffffffffffffffffffff8262000351565b6200039c868362000351565b95508019841693508086168417925050509392505050565b6000819050919050565b6000819050919050565b6000620003e9620003e3620003dd84620003b4565b620003be565b620003b4565b9050919050565b6000819050919050565b6200040583620003c8565b6200041d6200041482620003f0565b8484546200035e565b825550505050565b600090565b6200043462000425565b62000441818484620003fa565b505050565b5b8181101562000469576200045d6000826200042a565b60018101905062000447565b5050565b601f821115620004b85762000482816200032c565b6200048d8462000341565b810160208510156200049d578190505b620004b5620004ac8562000341565b83018262000446565b50505b505050565b600082821c905092915050565b6000620004dd60001984600802620004bd565b1980831691505092915050565b6000620004f88383620004ca565b9150826002028217905092915050565b62000513826200028e565b67ffffffffffffffff8111156200052f576200052e62000299565b5b6200053b8254620002f7565b620005488282856200046d565b600060209050601f8311600181146200058057600084156200056b578287015190505b620005778582620004ea565b865550620005e7565b601f19841662000590866200032c565b60005b82811015620005ba5784890151825560018201915060208501945060208101905062000593565b86831015620005da5784890151620005d6601f891682620004ca565b8355505b6001600288020188555050505b505050505050565b6000604051905090565b600080fd5b600080fd5b600080fd5b600080fd5b6000601f19601f8301169050919050565b62000629826200060d565b810181811067ffffffffffffffff821117156200064b576200064a62000299565b5b80604052505050565b600062000660620005ef565b90506200066e82826200061e565b919050565b600067ffffffffffffffff82111562000691576200069062000299565b5b6200069c826200060d565b9050602081019050919050565b60005b83811015620006c9578082015181840152602081019050620006ac565b60008484015250505050565b6000620006ec620006e68462000673565b62000654565b9050828152602081018484840111156200070b576200070a62000608565b5b62000718848285620006a9565b509392505050565b600082601f83011262000738576200073762000603565b5b81516200074a848260208601620006d5565b91505092915050565b6000602082840312156200076c576200076b620005f9565b5b600082015167ffffffffffffffff8111156200078d576200078c620005fe565b5b6200079b8482850162000720565b91505092915050565b6135fa80620007b46000396000f3fe6080604052600436106101445760003560e01c806368428a1b116100b6578063a22cb4651161006f578063a22cb46514610434578063b88d4fde1461045d578063c87b56dd14610486578063daaeec86146104c3578063e985e9c5146104da578063f2fde38b146105175761014b565b806368428a1b1461034357806370a082311461036e578063715018a6146103ab5780638da5cb5b146103c257806395d89b41146103ed578063a0712d68146104185761014b565b806323b872dd1161010857806323b872dd1461024957806332cb6b0c146102725780633ccfd60b1461029d57806342842e0e146102b457806355f804b3146102dd5780636352211e146103065761014b565b806301ffc9a71461015057806306fdde031461018d578063081812fc146101b8578063095ea7b3146101f557806318160ddd1461021e5761014b565b3661014b57005b600080fd5b34801561015c57600080fd5b5061017760048036038101906101729190611ed6565b610540565b6040516101849190611f1e565b60405180910390f35b34801561019957600080fd5b506101a2610622565b6040516101af9190611fc9565b60405180910390f35b3480156101c457600080fd5b506101df60048036038101906101da9190612021565b6106b4565b6040516101ec919061208f565b60405180910390f35b34801561020157600080fd5b5061021c600480360381019061021791906120d6565b6106fa565b005b34801561022a57600080fd5b50610233610811565b6040516102409190612125565b60405180910390f35b34801561025557600080fd5b50610270600480360381019061026b9190612140565b61082e565b005b34801561027e57600080fd5b5061028761088e565b6040516102949190612125565b60405180910390f35b3480156102a957600080fd5b506102b2610893565b005b3480156102c057600080fd5b506102db60048036038101906102d69190612140565b610951565b005b3480156102e957600080fd5b5061030460048036038101906102ff91906122c8565b610971565b005b34801561031257600080fd5b5061032d60048036038101906103289190612021565b610984565b60405161033a919061208f565b60405180910390f35b34801561034f57600080fd5b50610358610a35565b6040516103659190611f1e565b60405180910390f35b34801561037a57600080fd5b5061039560048036038101906103909190612311565b610a48565b6040516103a29190612125565b60405180910390f35b3480156103b757600080fd5b506103c0610aff565b005b3480156103ce57600080fd5b506103d7610b13565b6040516103e4919061208f565b60405180910390f35b3480156103f957600080fd5b50610402610b3d565b60405161040f9190611fc9565b60405180910390f35b610432600480360381019061042d9190612021565b610bcf565b005b34801561044057600080fd5b5061045b6004803603810190610456919061236a565b610d6f565b005b34801561046957600080fd5b50610484600480360381019061047f919061244b565b610d85565b005b34801561049257600080fd5b506104ad60048036038101906104a89190612021565b610de7565b6040516104ba9190611fc9565b60405180910390f35b3480156104cf57600080fd5b506104d8610e91565b005b3480156104e657600080fd5b5061050160048036038101906104fc91906124ce565b610ec5565b60405161050e9190611f1e565b60405180910390f35b34801561052357600080fd5b5061053e60048036038101906105399190612311565b610f59565b005b60007f80ac58cd000000000000000000000000000000000000000000000000000000007bffffffffffffffffffffffffffffffffffffffffffffffffffffffff1916827bffffffffffffffffffffffffffffffffffffffffffffffffffffffff1916148061060b57507f5b5e139f000000000000000000000000000000000000000000000000000000007bffffffffffffffffffffffffffffffffffffffffffffffffffffffff1916827bffffffffffffffffffffffffffffffffffffffffffffffffffffffff1916145b8061061b575061061a82610ff2565b5b9050919050565b6060600080546106319061253d565b80601f016020809104026020016040519081016040528092919081815260200182805461065d9061253d565b80156106aa5780601f1061067f576101008083540402835291602001916106aa565b820191906000526020600020905b81548152906001019060200180831161068d57829003601f168201915b5050505050905090565b60006106bf8261105c565b6004600083815260200190815260200160002060009054906101000a900473ffffffffffffffffffffffffffffffffffffffff169050919050565b600061070582610984565b90508073ffffffffffffffffffffffffffffffffffffffff168373ffffffffffffffffffffffffffffffffffffffff1603610775576040517f08c379a000000000000000000000000000000000000000000000000000000000815260040161076c906125e0565b60405180910390fd5b8073ffffffffffffffffffffffffffffffffffffffff166107946110a7565b73ffffffffffffffffffffffffffffffffffffffff1614806107c357506107c2816107bd6110a7565b610ec5565b5b610802576040517f08c379a00000000000000000000000000000000000000000000000000000000081526004016107f990612672565b60405180910390fd5b61080c83836110af565b505050565b6000600161081f6007611168565b61082991906126c1565b905090565b61083f6108396110a7565b82611176565b61087e576040517f08c379a000000000000000000000000000000000000000000000000000000000815260040161087590612767565b60405180910390fd5b61088983838361120b565b505050565b602981565b61089b611471565b60006108a5610b13565b73ffffffffffffffffffffffffffffffffffffffff16476040516108c8906127b8565b60006040518083038185875af1925050503d8060008114610905576040519150601f19603f3d011682016040523d82523d6000602084013e61090a565b606091505b505090508061094e576040517f08c379a000000000000000000000000000000000000000000000000000000000815260040161094590612819565b60405180910390fd5b50565b61096c83838360405180602001604052806000815250610d85565b505050565b806008908161098091906129e5565b5050565b6000806002600084815260200190815260200160002060009054906101000a900473ffffffffffffffffffffffffffffffffffffffff169050600073ffffffffffffffffffffffffffffffffffffffff168173ffffffffffffffffffffffffffffffffffffffff1603610a2c576040517f08c379a0000000000000000000000000000000000000000000000000000000008152600401610a2390612b03565b60405180910390fd5b80915050919050565b600a60009054906101000a900460ff1681565b60008073ffffffffffffffffffffffffffffffffffffffff168273ffffffffffffffffffffffffffffffffffffffff1603610ab8576040517f08c379a0000000000000000000000000000000000000000000000000000000008152600401610aaf90612b95565b60405180910390fd5b600360008373ffffffffffffffffffffffffffffffffffffffff1673ffffffffffffffffffffffffffffffffffffffff168152602001908152602001600020549050919050565b610b07611471565b610b1160006114ef565b565b6000600660009054906101000a900473ffffffffffffffffffffffffffffffffffffffff16905090565b606060018054610b4c9061253d565b80601f0160208091040260200160405190810160405280929190818152602001828054610b789061253d565b8015610bc55780601f10610b9a57610100808354040283529160200191610bc5565b820191906000526020600020905b815481529060010190602001808311610ba857829003601f168201915b5050505050905090565b600a60019054906101000a900460ff1615610c1f576040517f08c379a0000000000000000000000000000000000000000000000000000000008152600401610c1690612c01565b60405180910390fd5b6001600a60016101000a81548160ff021916908315150217905550600a60009054906101000a900460ff16610c89576040517f08c379a0000000000000000000000000000000000000000000000000000000008152600401610c8090612c6d565b60405180910390fd5b6000339050600082118015610cb15750600382610ca583610a48565b610caf9190612c8d565b105b610cf0576040517f08c379a0000000000000000000000000000000000000000000000000000000008152600401610ce790612d0d565b60405180910390fd5b81670429d069189e0000610d049190612d2d565b341015610d46576040517f08c379a0000000000000000000000000000000000000000000000000000000008152600401610d3d90612dd3565b60405180910390fd5b610d5081836115b5565b506000600a60016101000a81548160ff02191690831515021790555050565b610d81610d7a6110a7565b838361163e565b5050565b610d96610d906110a7565b83611176565b610dd5576040517f08c379a0000000000000000000000000000000000000000000000000000000008152600401610dcc90612767565b60405180910390fd5b610de1848484846117aa565b50505050565b6060610df282611806565b610e31576040517f08c379a0000000000000000000000000000000000000000000000000000000008152600401610e2890612e65565b60405180910390fd5b6000610e3b611872565b90506000815111610e5b5760405180602001604052806000815250610e89565b80610e6584611904565b6009604051602001610e7993929190612f44565b6040516020818303038152906040525b915050919050565b610e99611471565b600a60009054906101000a900460ff1615600a60006101000a81548160ff021916908315150217905550565b6000600560008473ffffffffffffffffffffffffffffffffffffffff1673ffffffffffffffffffffffffffffffffffffffff16815260200190815260200160002060008373ffffffffffffffffffffffffffffffffffffffff1673ffffffffffffffffffffffffffffffffffffffff16815260200190815260200160002060009054906101000a900460ff16905092915050565b610f61611471565b600073ffffffffffffffffffffffffffffffffffffffff168173ffffffffffffffffffffffffffffffffffffffff1603610fd0576040517f08c379a0000000000000000000000000000000000000000000000000000000008152600401610fc790612fe7565b60405180910390fd5b610fd9816114ef565b50565b6001816000016000828254019250508190555050565b60007f01ffc9a7000000000000000000000000000000000000000000000000000000007bffffffffffffffffffffffffffffffffffffffffffffffffffffffff1916827bffffffffffffffffffffffffffffffffffffffffffffffffffffffff1916149050919050565b61106581611806565b6110a4576040517f08c379a000000000000000000000000000000000000000000000000000000000815260040161109b90612b03565b60405180910390fd5b50565b600033905090565b816004600083815260200190815260200160002060006101000a81548173ffffffffffffffffffffffffffffffffffffffff021916908373ffffffffffffffffffffffffffffffffffffffff160217905550808273ffffffffffffffffffffffffffffffffffffffff1661112283610984565b73ffffffffffffffffffffffffffffffffffffffff167f8c5be1e5ebec7d5bd14f71427d1e84f3dd0314c0f7b2291e5b200ac8c7c3b92560405160405180910390a45050565b600081600001549050919050565b60008061118283610984565b90508073ffffffffffffffffffffffffffffffffffffffff168473ffffffffffffffffffffffffffffffffffffffff1614806111c457506111c38185610ec5565b5b8061120257508373ffffffffffffffffffffffffffffffffffffffff166111ea846106b4565b73ffffffffffffffffffffffffffffffffffffffff16145b91505092915050565b8273ffffffffffffffffffffffffffffffffffffffff1661122b82610984565b73ffffffffffffffffffffffffffffffffffffffff1614611281576040517f08c379a000000000000000000000000000000000000000000000000000000000815260040161127890613079565b60405180910390fd5b600073ffffffffffffffffffffffffffffffffffffffff168273ffffffffffffffffffffffffffffffffffffffff16036112f0576040517f08c379a00000000000000000000000000000000000000000000000000000000081526004016112e79061310b565b60405180910390fd5b6112fb838383611a64565b6113066000826110af565b6001600360008573ffffffffffffffffffffffffffffffffffffffff1673ffffffffffffffffffffffffffffffffffffffff168152602001908152602001600020600082825461135691906126c1565b925050819055506001600360008473ffffffffffffffffffffffffffffffffffffffff1673ffffffffffffffffffffffffffffffffffffffff16815260200190815260200160002060008282546113ad9190612c8d565b92505081905550816002600083815260200190815260200160002060006101000a81548173ffffffffffffffffffffffffffffffffffffffff021916908373ffffffffffffffffffffffffffffffffffffffff160217905550808273ffffffffffffffffffffffffffffffffffffffff168473ffffffffffffffffffffffffffffffffffffffff167fddf252ad1be2c89b69c2b068fc378daa952ba7f163c4a11628f55a4df523b3ef60405160405180910390a461146c838383611a69565b505050565b6114796110a7565b73ffffffffffffffffffffffffffffffffffffffff16611497610b13565b73ffffffffffffffffffffffffffffffffffffffff16146114ed576040517f08c379a00000000000000000000000000000000000000000000000000000000081526004016114e490613177565b60405180910390fd5b565b6000600660009054906101000a900473ffffffffffffffffffffffffffffffffffffffff16905081600660006101000a81548173ffffffffffffffffffffffffffffffffffffffff021916908373ffffffffffffffffffffffffffffffffffffffff1602179055508173ffffffffffffffffffffffffffffffffffffffff168173ffffffffffffffffffffffffffffffffffffffff167f8be0079c531659141344cd1fd0a4f28419497f9722a3daafe3b4186f6b6457e060405160405180910390a35050565b60296115c16007611168565b82011115611604576040517f08c379a00000000000000000000000000000000000000000000000000000000081526004016115fb906131e3565b60405180910390fd5b60005b81811015611639576116228361161d6007611168565b611a6e565b61162c6007610fdc565b8080600101915050611607565b505050565b8173ffffffffffffffffffffffffffffffffffffffff168373ffffffffffffffffffffffffffffffffffffffff16036116ac576040517f08c379a00000000000000000000000000000000000000000000000000000000081526004016116a39061324f565b60405180910390fd5b80600560008573ffffffffffffffffffffffffffffffffffffffff1673ffffffffffffffffffffffffffffffffffffffff16815260200190815260200160002060008473ffffffffffffffffffffffffffffffffffffffff1673ffffffffffffffffffffffffffffffffffffffff16815260200190815260200160002060006101000a81548160ff0219169083151502179055508173ffffffffffffffffffffffffffffffffffffffff168373ffffffffffffffffffffffffffffffffffffffff167f17307eab39ab6107e8899845ad3d59bd9653f200f220920489ca2b5937696c318360405161179d9190611f1e565b60405180910390a3505050565b6117b584848461120b565b6117c184848484611a8c565b611800576040517f08c379a00000000000000000000000000000000000000000000000000000000081526004016117f7906132e1565b60405180910390fd5b50505050565b60008073ffffffffffffffffffffffffffffffffffffffff166002600084815260200190815260200160002060009054906101000a900473ffffffffffffffffffffffffffffffffffffffff1673ffffffffffffffffffffffffffffffffffffffff1614159050919050565b6060600880546118819061253d565b80601f01602080910402602001604051908101604052809291908181526020018280546118ad9061253d565b80156118fa5780601f106118cf576101008083540402835291602001916118fa565b820191906000526020600020905b8154815290600101906020018083116118dd57829003601f168201915b5050505050905090565b60606000820361194b576040518060400160405280600181526020017f30000000000000000000000000000000000000000000000000000000000000008152509050611a5f565b600082905060005b6000821461197d57808061196690613301565b915050600a826119769190613378565b9150611953565b60008167ffffffffffffffff8111156119995761199861219d565b5b6040519080825280601f01601f1916602001820160405280156119cb5781602001600182028036833780820191505090505b5090505b60008514611a58576001826119e491906126c1565b9150600a856119f391906133a9565b60306119ff9190612c8d565b60f81b818381518110611a1557611a146133da565b5b60200101907effffffffffffffffffffffffffffffffffffffffffffffffffffffffffffff1916908160001a905350600a85611a519190613378565b94506119cf565b8093505050505b919050565b505050565b505050565b611a88828260405180602001604052806000815250611c13565b5050565b6000611aad8473ffffffffffffffffffffffffffffffffffffffff16611c6e565b15611c06578373ffffffffffffffffffffffffffffffffffffffff1663150b7a02611ad66110a7565b8786866040518563ffffffff1660e01b8152600401611af8949392919061345e565b6020604051808303816000875af1925050508015611b3457506040513d601f19601f82011682018060405250810190611b3191906134bf565b60015b611bb6573d8060008114611b64576040519150601f19603f3d011682016040523d82523d6000602084013e611b69565b606091505b506000815103611bae576040517f08c379a0000000000000000000000000000000000000000000000000000000008152600401611ba5906132e1565b60405180910390fd5b805181602001fd5b63150b7a0260e01b7bffffffffffffffffffffffffffffffffffffffffffffffffffffffff1916817bffffffffffffffffffffffffffffffffffffffffffffffffffffffff191614915050611c0b565b600190505b949350505050565b611c1d8383611c91565b611c2a6000848484611a8c565b611c69576040517f08c379a0000000000000000000000000000000000000000000000000000000008152600401611c60906132e1565b60405180910390fd5b505050565b6000808273ffffffffffffffffffffffffffffffffffffffff163b119050919050565b600073ffffffffffffffffffffffffffffffffffffffff168273ffffffffffffffffffffffffffffffffffffffff1603611d00576040517f08c379a0000000000000000000000000000000000000000000000000000000008152600401611cf790613538565b60405180910390fd5b611d0981611806565b15611d49576040517f08c379a0000000000000000000000000000000000000000000000000000000008152600401611d40906135a4565b60405180910390fd5b611d5560008383611a64565b6001600360008473ffffffffffffffffffffffffffffffffffffffff1673ffffffffffffffffffffffffffffffffffffffff1681526020019081526020016000206000828254611da59190612c8d565b92505081905550816002600083815260200190815260200160002060006101000a81548173ffffffffffffffffffffffffffffffffffffffff021916908373ffffffffffffffffffffffffffffffffffffffff160217905550808273ffffffffffffffffffffffffffffffffffffffff16600073ffffffffffffffffffffffffffffffffffffffff167fddf252ad1be2c89b69c2b068fc378daa952ba7f163c4a11628f55a4df523b3ef60405160405180910390a4611e6660008383611a69565b5050565b6000604051905090565b600080fd5b600080fd5b60007fffffffff0000000000000000000000000000000000000000000000000000000082169050919050565b611eb381611e7e565b8114611ebe57600080fd5b50565b600081359050611ed081611eaa565b92915050565b600060208284031215611eec57611eeb611e74565b5b6000611efa84828501611ec1565b91505092915050565b60008115159050919050565b611f1881611f03565b82525050565b6000602082019050611f336000830184611f0f565b92915050565b600081519050919050565b600082825260208201905092915050565b60005b83811015611f73578082015181840152602081019050611f58565b60008484015250505050565b6000601f19601f8301169050919050565b6000611f9b82611f39565b611fa58185611f44565b9350611fb5818560208601611f55565b611fbe81611f7f565b840191505092915050565b60006020820190508181036000830152611fe38184611f90565b905092915050565b6000819050919050565b611ffe81611feb565b811461200957600080fd5b50565b60008135905061201b81611ff5565b92915050565b60006020828403121561203757612036611e74565b5b60006120458482850161200c565b91505092915050565b600073ffffffffffffffffffffffffffffffffffffffff82169050919050565b60006120798261204e565b9050919050565b6120898161206e565b82525050565b60006020820190506120a46000830184612080565b92915050565b6120b38161206e565b81146120be57600080fd5b50565b6000813590506120d0816120aa565b92915050565b600080604083850312156120ed576120ec611e74565b5b60006120fb858286016120c1565b925050602061210c8582860161200c565b9150509250929050565b61211f81611feb565b82525050565b600060208201905061213a6000830184612116565b92915050565b60008060006060848603121561215957612158611e74565b5b6000612167868287016120c1565b9350506020612178868287016120c1565b92505060406121898682870161200c565b9150509250925092565b600080fd5b600080fd5b7f4e487b7100000000000000000000000000000000000000000000000000000000600052604160045260246000fd5b6121d582611f7f565b810181811067ffffffffffffffff821117156121f4576121f361219d565b5b80604052505050565b6000612207611e6a565b905061221382826121cc565b919050565b600067ffffffffffffffff8211156122335761223261219d565b5b61223c82611f7f565b9050602081019050919050565b82818337600083830152505050565b600061226b61226684612218565b6121fd565b90508281526020810184848401111561228757612286612198565b5b612292848285612249565b509392505050565b600082601f8301126122af576122ae612193565b5b81356122bf848260208601612258565b91505092915050565b6000602082840312156122de576122dd611e74565b5b600082013567ffffffffffffffff8111156122fc576122fb611e79565b5b6123088482850161229a565b91505092915050565b60006020828403121561232757612326611e74565b5b6000612335848285016120c1565b91505092915050565b61234781611f03565b811461235257600080fd5b50565b6000813590506123648161233e565b92915050565b6000806040838503121561238157612380611e74565b5b600061238f858286016120c1565b92505060206123a085828601612355565b9150509250929050565b600067ffffffffffffffff8211156123c5576123c461219d565b5b6123ce82611f7f565b9050602081019050919050565b60006123ee6123e9846123aa565b6121fd565b90508281526020810184848401111561240a57612409612198565b5b612415848285612249565b509392505050565b600082601f83011261243257612431612193565b5b81356124428482602086016123db565b91505092915050565b6000806000806080858703121561246557612464611e74565b5b6000612473878288016120c1565b9450506020612484878288016120c1565b93505060406124958782880161200c565b925050606085013567ffffffffffffffff8111156124b6576124b5611e79565b5b6124c28782880161241d565b91505092959194509250565b600080604083850312156124e5576124e4611e74565b5b60006124f3858286016120c1565b9250506020612504858286016120c1565b9150509250929050565b7f4e487b7100000000000000000000000000000000000000000000000000000000600052602260045260246000fd5b6000600282049050600182168061255557607f821691505b6020821081036125685761256761250e565b5b50919050565b7f4552433732313a20617070726f76616c20746f2063757272656e74206f776e6560008201527f7200000000000000000000000000000000000000000000000000000000000000602082015250565b60006125ca602183611f44565b91506125d58261256e565b604082019050919050565b600060208201905081810360008301526125f9816125bd565b9050919050565b7f4552433732313a20617070726f76652063616c6c6572206973206e6f7420746f60008201527f6b656e206f776e6572206e6f7220617070726f76656420666f7220616c6c0000602082015250565b600061265c603e83611f44565b915061266782612600565b604082019050919050565b6000602082019050818103600083015261268b8161264f565b9050919050565b7f4e487b7100000000000000000000000000000000000000000000000000000000600052601160045260246000fd5b60006126cc82611feb565b91506126d783611feb565b92508282039050818111156126ef576126ee612692565b5b92915050565b7f4552433732313a2063616c6c6572206973206e6f7420746f6b656e206f776e6560008201527f72206e6f7220617070726f766564000000000000000000000000000000000000602082015250565b6000612751602e83611f44565b915061275c826126f5565b604082019050919050565b6000602082019050818103600083015261278081612744565b9050919050565b600081905092915050565b50565b60006127a2600083612787565b91506127ad82612792565b600082019050919050565b60006127c382612795565b9150819050919050565b7f4661696c656420746f2077697468647261772045746865722e00000000000000600082015250565b6000612803601983611f44565b915061280e826127cd565b602082019050919050565b60006020820190508181036000830152612832816127f6565b9050919050565b60008190508160005260206000209050919050565b60006020601f8301049050919050565b600082821b905092915050565b60006008830261289b7fffffffffffffffffffffffffffffffffffffffffffffffffffffffffffffffff8261285e565b6128a5868361285e565b95508019841693508086168417925050509392505050565b6000819050919050565b60006128e26128dd6128d884611feb565b6128bd565b611feb565b9050919050565b6000819050919050565b6128fc836128c7565b612910612908826128e9565b84845461286b565b825550505050565b600090565b612925612918565b6129308184846128f3565b505050565b5b818110156129545761294960008261291d565b600181019050612936565b5050565b601f8211156129995761296a81612839565b6129738461284e565b81016020851015612982578190505b61299661298e8561284e565b830182612935565b50505b505050565b600082821c905092915050565b60006129bc6000198460080261299e565b1980831691505092915050565b60006129d583836129ab565b9150826002028217905092915050565b6129ee82611f39565b67ffffffffffffffff811115612a0757612a0661219d565b5b612a11825461253d565b612a1c828285612958565b600060209050601f831160018114612a4f5760008415612a3d578287015190505b612a4785826129c9565b865550612aaf565b601f198416612a5d86612839565b60005b82811015612a8557848901518255600182019150602085019450602081019050612a60565b86831015612aa25784890151612a9e601f8916826129ab565b8355505b6001600288020188555050505b505050505050565b7f4552433732313a20696e76616c696420746f6b656e2049440000000000000000600082015250565b6000612aed601883611f44565b9150612af882612ab7565b602082019050919050565b60006020820190508181036000830152612b1c81612ae0565b9050919050565b7f4552433732313a2061646472657373207a65726f206973206e6f74206120766160008201527f6c6964206f776e65720000000000000000000000000000000000000000000000602082015250565b6000612b7f602983611f44565b9150612b8a82612b23565b604082019050919050565b60006020820190508181036000830152612bae81612b72565b9050919050565b7f4e6f2072652d656e7472616e742063616c6c2e00000000000000000000000000600082015250565b6000612beb601383611f44565b9150612bf682612bb5565b602082019050919050565b60006020820190508181036000830152612c1a81612bde565b9050919050565b7f53616c6520697320636c6f73656420617420746865206d6f6d656e742e000000600082015250565b6000612c57601d83611f44565b9150612c6282612c21565b602082019050919050565b60006020820190508181036000830152612c8681612c4a565b9050919050565b6000612c9882611feb565b9150612ca383611feb565b9250828201905080821115612cbb57612cba612692565b5b92915050565b7f496e76616c6964206d696e74207175616e746974792e00000000000000000000600082015250565b6000612cf7601683611f44565b9150612d0282612cc1565b602082019050919050565b60006020820190508181036000830152612d2681612cea565b9050919050565b6000612d3882611feb565b9150612d4383611feb565b9250817fffffffffffffffffffffffffffffffffffffffffffffffffffffffffffffffff0483118215151615612d7c57612d7b612692565b5b828202905092915050565b7f4e6f7420656e6f756768204554482e0000000000000000000000000000000000600082015250565b6000612dbd600f83611f44565b9150612dc882612d87565b602082019050919050565b60006020820190508181036000830152612dec81612db0565b9050919050565b7f4552433732314d657461646174613a2055524920717565727920666f72206e6f60008201527f6e6578697374656e7420746f6b656e2e00000000000000000000000000000000602082015250565b6000612e4f603083611f44565b9150612e5a82612df3565b604082019050919050565b60006020820190508181036000830152612e7e81612e42565b9050919050565b600081905092915050565b6000612e9b82611f39565b612ea58185612e85565b9350612eb5818560208601611f55565b80840191505092915050565b60008154612ece8161253d565b612ed88186612e85565b94506001821660008114612ef35760018114612f0857612f3b565b60ff1983168652811515820286019350612f3b565b612f1185612839565b60005b83811015612f3357815481890152600182019150602081019050612f14565b838801955050505b50505092915050565b6000612f508286612e90565b9150612f5c8285612e90565b9150612f688284612ec1565b9150819050949350505050565b7f4f776e61626c653a206e6577206f776e657220697320746865207a65726f206160008201527f6464726573730000000000000000000000000000000000000000000000000000602082015250565b6000612fd1602683611f44565b9150612fdc82612f75565b604082019050919050565b6000602082019050818103600083015261300081612fc4565b9050919050565b7f4552433732313a207472616e736665722066726f6d20696e636f72726563742060008201527f6f776e6572000000000000000000000000000000000000000000000000000000602082015250565b6000613063602583611f44565b915061306e82613007565b604082019050919050565b6000602082019050818103600083015261309281613056565b9050919050565b7f4552433732313a207472616e7366657220746f20746865207a65726f2061646460008201527f7265737300000000000000000000000000000000000000000000000000000000602082015250565b60006130f5602483611f44565b915061310082613099565b604082019050919050565b60006020820190508181036000830152613124816130e8565b9050919050565b7f4f776e61626c653a2063616c6c6572206973206e6f7420746865206f776e6572600082015250565b6000613161602083611f44565b915061316c8261312b565b602082019050919050565b6000602082019050818103600083015261319081613154565b9050919050565b7f4d617820737570706c792065786365656465642e000000000000000000000000600082015250565b60006131cd601483611f44565b91506131d882613197565b602082019050919050565b600060208201905081810360008301526131fc816131c0565b9050919050565b7f4552433732313a20617070726f766520746f2063616c6c657200000000000000600082015250565b6000613239601983611f44565b915061324482613203565b602082019050919050565b600060208201905081810360008301526132688161322c565b9050919050565b7f4552433732313a207472616e7366657220746f206e6f6e20455243373231526560008201527f63656976657220696d706c656d656e7465720000000000000000000000000000602082015250565b60006132cb603283611f44565b91506132d68261326f565b604082019050919050565b600060208201905081810360008301526132fa816132be565b9050919050565b600061330c82611feb565b91507fffffffffffffffffffffffffffffffffffffffffffffffffffffffffffffffff820361333e5761333d612692565b5b600182019050919050565b7f4e487b7100000000000000000000000000000000000000000000000000000000600052601260045260246000fd5b600061338382611feb565b915061338e83611feb565b92508261339e5761339d613349565b5b828204905092915050565b60006133b482611feb565b91506133bf83611feb565b9250826133cf576133ce613349565b5b828206905092915050565b7f4e487b7100000000000000000000000000000000000000000000000000000000600052603260045260246000fd5b600081519050919050565b600082825260208201905092915050565b600061343082613409565b61343a8185613414565b935061344a818560208601611f55565b61345381611f7f565b840191505092915050565b60006080820190506134736000830187612080565b6134806020830186612080565b61348d6040830185612116565b818103606083015261349f8184613425565b905095945050505050565b6000815190506134b981611eaa565b92915050565b6000602082840312156134d5576134d4611e74565b5b60006134e3848285016134aa565b91505092915050565b7f4552433732313a206d696e7420746f20746865207a65726f2061646472657373600082015250565b6000613522602083611f44565b915061352d826134ec565b602082019050919050565b6000602082019050818103600083015261355181613515565b9050919050565b7f4552433732313a20746f6b656e20616c7265616479206d696e74656400000000600082015250565b600061358e601c83611f44565b915061359982613558565b602082019050919050565b600060208201905081810360008301526135bd81613581565b905091905056fea264697066735822122083996df6492a4145bee79a84c5019c70993066f8591e6027bc2e3abad20d301764736f6c63430008100033",
  "immutableReferences": {},
  "source": "// SPDX-License-Identifier: MIT\n\n/**\n * Author: Lawrence Onah <paplow01@gmail.com>\n * Github: https://github.com/kodjunkie\n */\n\npragma solidity >=0.8.13 <0.9.0;\n\nimport \"@openzeppelin/contracts/token/ERC721/ERC721.sol\";\nimport \"@openzeppelin/contracts/utils/Counters.sol\";\nimport \"@openzeppelin/contracts/access/Ownable.sol\";\n\ncontract ReviseWeMeta is ERC721, Ownable {\n    using Strings for uint256;\n    using Counters for Counters.Counter;\n\n    Counters.Counter private _supply;\n\n    string private baseURI;\n    string private baseExt = \".json\";\n\n    // Total supply\n    uint256 public constant MAX_SUPPLY = 41;\n\n    // Public mint constants\n    bool public saleActive = false;\n    uint256 private constant MAX_PER_WALLET = 3; // 2/wallet (uses < to save gas)\n    uint256 private constant MINT_PRICE = 0.3 ether;\n\n    bool private _locked = false; // for re-entrancy guard\n\n    // Initializes the contract by setting a `name` and a `symbol`\n    constructor(string memory _initBaseURI) ERC721(\"ReviseWeMeta\", \"RVWM\") {\n        _supply.increment();\n        setBaseURI(_initBaseURI);\n    }\n\n    // Mint an NFT\n    function mint(uint256 _quantity) external payable nonReentrant {\n        require(saleActive, \"Sale is closed at the moment.\");\n\n        address _to = msg.sender;\n        require(\n            _quantity > 0 && (balanceOf(_to) + _quantity) < MAX_PER_WALLET,\n            \"Invalid mint quantity.\"\n        );\n        require(msg.value >= (MINT_PRICE * _quantity), \"Not enough ETH.\");\n\n        _mintLoop(_to, _quantity);\n    }\n\n    // Itrative mint handler\n    function _mintLoop(address _to, uint256 _quantity) private {\n        /**\n         * To save gas, since we know _quantity won't underflow / overflow\n         * Checks are performed in caller functions / methods\n         */\n        unchecked {\n            require(\n                (_quantity + _supply.current()) <= MAX_SUPPLY,\n                \"Max supply exceeded.\"\n            );\n\n            for (uint256 i = 0; i < _quantity; i++) {\n                _safeMint(_to, _supply.current());\n                _supply.increment();\n            }\n        }\n    }\n\n    // Toggle sale state\n    function toggleSaleState() public onlyOwner {\n        saleActive = !saleActive;\n    }\n\n    // Get total supply\n    function totalSupply() public view returns (uint256) {\n        return _supply.current() - 1;\n    }\n\n    // Base URI\n    function _baseURI() internal view virtual override returns (string memory) {\n        return baseURI;\n    }\n\n    // Set base URI\n    function setBaseURI(string memory _newBaseURI) public {\n        baseURI = _newBaseURI;\n    }\n\n    // Get metadata URI\n    function tokenURI(uint256 tokenId)\n        public\n        view\n        virtual\n        override\n        returns (string memory)\n    {\n        require(\n            _exists(tokenId),\n            \"ERC721Metadata: URI query for nonexistent token.\"\n        );\n\n        string memory currentBaseURI = _baseURI();\n        return\n            bytes(currentBaseURI).length > 0\n                ? string(\n                    abi.encodePacked(\n                        currentBaseURI,\n                        tokenId.toString(),\n                        baseExt\n                    )\n                )\n                : \"\";\n    }\n\n    // Withdraw balance\n    function withdraw() external onlyOwner {\n        // Transfer the remaining balance to the owner\n        // Do not remove this line, else you won't be able to withdraw the funds\n        (bool sent, ) = payable(owner()).call{value: address(this).balance}(\"\");\n        require(sent, \"Failed to withdraw Ether.\");\n    }\n\n    // Receive any funds sent to the contract\n    receive() external payable {}\n\n    // Reentrancy guard modifier\n    modifier nonReentrant() {\n        require(!_locked, \"No re-entrant call.\");\n        _locked = true;\n        _;\n        _locked = false;\n    }\n}\n",
  "sourcePath": "/Users/nbrons/wemeta/nftfi-hack/contracts/contract.sol",
  "compiler": {
    "name": "solc",
    "version": "0.8.16+commit.07a7930e.Emscripten.clang"
  },
  "schemaVersion": "3.4.9",
  "updatedAt": "2022-08-28T01:45:04.254Z",
  "devdoc": {
    "kind": "dev",
    "methods": {
      "approve(address,uint256)": {
        "details": "See {IERC721-approve}."
      },
      "balanceOf(address)": {
        "details": "See {IERC721-balanceOf}."
      },
      "getApproved(uint256)": {
        "details": "See {IERC721-getApproved}."
      },
      "isApprovedForAll(address,address)": {
        "details": "See {IERC721-isApprovedForAll}."
      },
      "name()": {
        "details": "See {IERC721Metadata-name}."
      },
      "owner()": {
        "details": "Returns the address of the current owner."
      },
      "ownerOf(uint256)": {
        "details": "See {IERC721-ownerOf}."
      },
      "renounceOwnership()": {
        "details": "Leaves the contract without owner. It will not be possible to call `onlyOwner` functions anymore. Can only be called by the current owner. NOTE: Renouncing ownership will leave the contract without an owner, thereby removing any functionality that is only available to the owner."
      },
      "safeTransferFrom(address,address,uint256)": {
        "details": "See {IERC721-safeTransferFrom}."
      },
      "safeTransferFrom(address,address,uint256,bytes)": {
        "details": "See {IERC721-safeTransferFrom}."
      },
      "setApprovalForAll(address,bool)": {
        "details": "See {IERC721-setApprovalForAll}."
      },
      "supportsInterface(bytes4)": {
        "details": "See {IERC165-supportsInterface}."
      },
      "symbol()": {
        "details": "See {IERC721Metadata-symbol}."
      },
      "tokenURI(uint256)": {
        "details": "See {IERC721Metadata-tokenURI}."
      },
      "transferFrom(address,address,uint256)": {
        "details": "See {IERC721-transferFrom}."
      },
      "transferOwnership(address)": {
        "details": "Transfers ownership of the contract to a new account (`newOwner`). Can only be called by the current owner."
      }
    },
    "version": 1
  },
  "userdoc": {
    "kind": "user",
    "methods": {},
    "version": 1
  }
}